:100000000C942A000C9447000C9447000C94470071
:100010000C9447000C9447000C9447000C94470044
:100020000C9447000C9447000C9447000C94470034
:100030000C9447000C9447000C9447000C94470024
:100040000C9447000C9447000C9447000C94470014
:100050000C94470011241FBECFE5D4E0DEBFCDBF16
:1000600012E0A0E6B0E0EAE2FBE102C005900D92EA
:10007000A832B107D9F722E0A8E2B2E001C01D9290
:10008000A832B207E1F70E942E070C94930D0C944E
:100090000000E199FECF90E09FBB8EBB6DBBE29A62
:1000A000E19A0895FC01808190E0062E02C09595AA
:1000B00087950A94E2F780FD1FC08FE097E20197D1
:1000C000F1F700C00000808190E0062E02C09595F7
:1000D00087950A94E2F721E08227817041E050E0A1
:1000E00002C0440F551F6A95E2F7208130E02423B7
:1000F0003523232BD1F3089580E00895C49A82E03C
:100100008A95F1F700C080E80E94F80882E08A959D
:10011000F1F700C080E00E94F80882E08A95F1F7CC
:1001200000C0C4980895C49A82E08A95F1F700C08F
:1001300082E00E94F80892E09A95F1F700C080E012
:100140000E94F80892E09A95F1F700C0C4980895CB
:10015000CF93DF93E0E6F0E0628173818481958143
:100160000E94450881113CC0C0E6D0E04C815D8111
:1001700060E081E00E9401074A815B8160E082E0EB
:100180000E9401076AE082E00E94EA060E94930052
:1001900090E00E940C0741EB50E06FE082E00E948B
:1001A0000107AA81BB81EEE7F0E023E830E08D9102
:1001B0008193E217F307D9F7EEE7F0E080E2858359
:1001C000A0916400B09165001B968C911B9786836B
:1001D0001C968C911C9787831D968C91808708C0F4
:1001E0000E942A0743EB50E060E081E00E94010793
:1001F000DF91CF910895FF920F931F93CF93DF93D9
:1002000000D000D01F92CDB7DEB7FC01008102956F
:10021000007F91819F70092B13811295107F94812B
:100220009F70192BAE014F5F5F4F60E2CF010E94BC
:100230008807CE0101960E944E07F82E61E081E00A
:100240000E944900602F82E00E944900612F83E0F4
:100250000E9449006F2D6F7084E00E9449000F904A
:100260000F900F900F900F90DF91CF911F910F91F2
:10027000FF900895CF93DF93CDB7DEB763970FB6A6
:10028000F894DEBF0FBECDBF20E1E9E8F0E0DE016B
:10029000149601900D922A95E1F720918800213063
:1002A00009F049C0FE01319622E030E0E199FECF2D
:1002B0003FBB2EBBE09A4DB341932F5F3F4F25309C
:1002C0003105A1F72981322F32953F70305DDC0175
:1002D0003C932F70205D11962C9311972AE3129670
:1002E0002C9312972A81322F32953F70305D1396EE
:1002F0003C9313972F70205D14962C93149720E253
:1003000015962C931597EB81EF70F0E0EE0FFF1F21
:10031000EC0FFD1F0480F581E02D208116962C93B3
:100320001697218117962C931797228118962C9354
:10033000189719961C9263960FB6F894DEBF0FBEFD
:10034000CDBFDF91CF9108956EE770E08091660098
:10035000909167000E94590A21E0892B09F020E062
:10036000822F0895CF93DF930E942A074BEF51E02D
:1003700067E080E00E940107C0E6D0E08E819F81A7
:100380000E943A014E815F8160E082E00E94010795
:100390002FEF89E698E1215080409040E1F700C0BE
:1003A00000000E942A074BED50E061E080E00E94CF
:1003B000010749EE50E060E083E00E9401074BEF47
:1003C00051E06AE083E00E940107DF91CF91089538
:1003D0000E94AD070E94A7060E94F1080E947E00BD
:1003E000E199FECF81E090E09FBB8EBBE09A8DB398
:1003F0008093880080916600909167000E943A0186
:1004000087B3807F87BB88B38F6088BBA29AAA9886
:100410004BED50E060E080E00E9401070E94A800E0
:1004200049EE50E060E083E00E9401074BEF51E0AD
:100430006AE083E00E94010708952F923F924F9255
:100440005F926F927F928F929F92AF92BF92CF9264
:10045000DF92EF92FF920F931F93CF93DF93CDB76D
:10046000DEB7CC55D1090FB6F894DEBF0FBECDBFB5
:100470006B968FAF6B97A62EE82EF12CF701EE0F3F
:10048000FF1FE05AFF4FC080D180B601CE01019618
:100490000E94620AFE01709680E2DF011D928A9539
:1004A000E9F721EF30E0398F288F86EF90E09B8FBE
:1004B0008A8F4DEF50E05D8F4C8F44E151E059A39E
:1004C00048A344E051E05BA34AA34AE051E05DA3A6
:1004D0004CA34FE051E05FA34EA339A728A79BA7E9
:1004E0008AA788E191E09DA78CA780E1E9E8F0E088
:1004F000DE01D09601900D928A95E1F7FE01E65B50
:10050000FF4F80E1DF011D928A95E9F728E12483FE
:100510008BE3858386839EE190879CE0918792E3BD
:10052000928797E09387248785879687B12CF70178
:10053000EE0FFF1FEE0FFF1FEA0DFB1DEE0FFF1F5B
:1005400021E030E02C0F3D1FE20FF31F07851089DB
:1005500091E030E0013F130709F090E081E0A1E075
:1005600004311A0709F080E0392E382A31F591E07C
:10057000B0E0063F1B0709F090E081E0E1E00430C5
:100580001E0709F080E0592E582AC9F4F0E00D3F0B
:100590001F07D1F021E00A301207D9F031E00F3007
:1005A000130709F42EC181E00831180709F42EC1A0
:1005B0006894662461F8712C4AC1212C0DC00F2E5D
:1005C000F3E02F2EF02D08C00F2EF6E02F2EF02D89
:1005D00003C06894222423F891E0A1E00F301A07A9
:1005E00009F090E081E0B1E008311B0709F080E0FC
:1005F000592E582A91F06894662461F8AE01405C47
:100600005F4F60E2CE0101960E948807CE01805CB8
:100610009F4F0E944E07782E1AC191E0E0E0063FFE
:100620001E0709F090E081E0F1E004301F0709F0B7
:1006300080E0982B81E020E00D3F120709F080E078
:10064000982B81E031E00A30130709F080E0892B14
:10065000832909F4F2C0822D90E09C012E5F3F4F68
:10066000821793070CF0EFC0922D712C770C872D19
:10067000880F880F870D8053F601E90FF11D7080F8
:10068000780E9F5F492F50E0421753077CF3689420
:10069000662461F8DCC060E086E390E00E945200CE
:1006A000882331F0D7018C91871549F1739427C0C5
:1006B00061E086E390E00E945200882329F0B1E0D7
:1006C0007B16E9F07A941BC062E086E390E00E941A
:1006D0005200882369F0BE016F5F7F4F6D96EEADCB
:1006E000FFAD6D97808191810E94620A412C07C005
:1006F00063E086E390E00E9452008111412C552076
:10070000D1F0E72DF0E0EE0FFF1F21E030E02C0FDD
:100710003D1FE20FF31F67A570A9C6010E94620A80
:10072000DE01AB5BBF4FE1E0F0E0EC0FFD1FEA0D37
:10073000FB1D80E039C091E030E0063F130709F06F
:1007400090E081E0A1E004301A0709F080E0892BF5
:1007500091E0B0E00D3F1B0709F090E0982B81E09D
:10076000E1E00A301E0709F080E0892B11F4332004
:10077000B9F21F927F929F928F92DF92CF920E9446
:10078000990A0F900F900F900F900F900F90F9E033
:10079000F71530F2D6018C9111968C931197E0E306
:1007A000EC9312961C92BCCF9D9191938F5F86150E
:1007B000D8F3AE014F5F5F4F60E082E00E94010717
:1007C000411069CF6B96FFAD6B97F23061F0F3305B
:1007D00089F0F13009F060C080916200909163006F
:1007E0000E94C10759C080916400909165000E94E9
:1007F000F30752C080916600909167000E94FB0051
:100800004BC00F2EFBE02F2EF02D04C00F2EF6E074
:100810002F2EF02D91E021E00F30120709F090E02B
:1008200081E031E00831130709F080E0592E582AA1
:100830000F2EF3E06F2EF02DE1CE582E6894662433
:1008400061F8712C04C06894662461F8712C44240A
:100850004394C701880F991FDC01A05ABF4F6D96C2
:10086000BFAFAEAF6D97EE0CFF1CEE0CFF1CEAE4C1
:10087000F0E0EC0FFD1FEE0EFF1EEA0CFB1C0F2E2E
:10088000F2E28F2EF1E09F2EF02D6E01F5E4CF0EF7
:10089000D11CA22CB12CFFCEC45ADF4F0FB6F89456
:1008A000DEBF0FBECDBFDF91CF911F910F91FF90A3
:1008B000EF90DF90CF90BF90AF909F908F907F9000
:1008C0006F905F904F903F902F9008958F929F92DE
:1008D000AF92BF92CF92DF92EF92FF920F931F934E
:1008E000CF93DF93CDB7DEB7A8970FB6F894DEBFEE
:1008F0000FBECDBF882E88E0E9E9F0E0DE01119659
:1009000001900D928A95E1F70E942A07E82CF12CBC
:100910008701000F111FE1E0F0E0EC0FFD1FE00F79
:10092000F11FC080D180A60160E080E00E94010735
:10093000F801E05AFF4F4081518160E082E00E945F
:100940000107FE01399680E2DF011D928A95E9F7E1
:1009500021EF30E03A8B298B86EF90E09C8B8B8BDC
:100960004DEF50E05E8B4D8B44E151E05A8F498F43
:1009700044E051E05C8F4B8F4AE051E05E8F4D8F39
:100980004FE051E058A34F8F3AA329A39CA38BA318
:1009900088E191E09EA38DA3B2E08B1205C00F2EDB
:1009A000F3E09F2EF02D03C06894992491F8AA24B7
:1009B000A394B12C8701000F111F000F111FC70155
:1009C000880F991FFC01E05AFF4F7F0160E086E32A
:1009D00090E00E945200882329F09B1409F48DC0F6
:1009E000B3948BC061E086E390E00E9452008823BC
:1009F00029F0BB2009F481C0BA947FC062E086E38D
:100A000090E00E945200882309F470C060E081E009
:100A10000E94EA06F801EB0DF11DEE0FFF1F21E029
:100A200030E02C0F3D1FE20FF31F8085918521E000
:100A300030E0813F930709F020E0211108C021E058
:100A4000A1E084319A0709F020E0222329F085E211
:100A500091E00E94D40637C021E0B0E0863F9B07BA
:100A600009F020E0211108C021E0E1E084309E0778
:100A700009F020E0222329F085E391E00E94D406CA
:100A800022C0F0E08D3F9F0729F485E491E00E94A9
:100A9000D40619C021E08A30920729F485E591E057
:100AA0000E94D40610C031E08F30930729F485E608
:100AB00091E00E94D40607C08851914021F485E757
:100AC00091E00E94D4066B2D882D0E941D020E9489
:100AD0002A07A60160E080E00E940107F70140813B
:100AE000518160E082E00E94010707C063E086E375
:100AF00090E00E9452008111A12C60E083E00E94EE
:100B0000EA06F801EB0DF11DEE0FFF1F21E030E0CA
:100B10002C0F3D1FE20FF31F8085918521E030E00F
:100B2000813F930709F020E0211108C021E0A1E0F6
:100B300084319A0709F020E0222329F085E891E02A
:100B40000E94D40637C021E0B0E0863F9B0709F041
:100B500020E0211108C021E0E1E084309E0709F087
:100B600020E0222329F085E991E00E94D40622C0EA
:100B7000F0E08D3F9F0729F485EA91E00E94D406BA
:100B800019C021E08A30920729F485EB91E00E9498
:100B9000D40610C031E08F30930729F485EC91E042
:100BA0000E94D40607C08851914021F485ED91E060
:100BB0000E94D406A1100ACF0E942A074BED50E0F4
:100BC00061E080E00E94010745EE51E061E081E0D4
:100BD0000E9401074EEE51E061E082E00E940107B1
:100BE00047EF51E061E083E00E940107A8960FB64D
:100BF000F894DEBF0FBECDBFDF91CF911F910F9153
:100C0000FF90EF90DF90CF90BF90AF909F908F902C
:100C100008951F93CF93DF930E942A074BED50E076
:100C200061E080E00E94010745EE51E061E081E073
:100C30000E9401074EEE51E061E082E00E94010750
:100C400047EF51E061E083E00E94010711E0D1E04D
:100C500060E086E390E00E945200882321F0D330C8
:100C6000F9F0DF5F1DC061E086E390E00E94520072
:100C7000882321F0D130A1F0D15012C062E086E388
:100C800090E00E945200882321F08D2F0E9466047C
:100C900007C063E086E390E00E945200811110E0FB
:100CA000C1E0DC130DC041E052E060E08C2F0E94F7
:100CB000010743E052E06BE08C2F0E9401070CC05B
:100CC00043E351E060E08C2F0E94010743E351E0D1
:100CD0006BE08C2F0E940107CF5FC43011F7111118
:100CE000B7CF0E942A074BED50E061E080E00E9400
:100CF000010749EE50E060E083E00E9401074BEFFE
:100D000051E06AE083E00E940107DF91CF911F91DB
:100D10000895AD98AE98EFECF7E03197F1F700C089
:100D20000000AF9AEFECF7E03197F1F700C0000058
:100D300082BB8FEC97E00197F1F700C00000AF98FD
:100D4000EFECF7E03197F1F700C00000089584B3AD
:100D5000806E84BB8FEF81BB88E30E9489068CE0A4
:100D60000E94890681E00E9489060895AD9AAE9896
:100D7000EFECF7E03197F1F700C00000AF9AEFEC2D
:100D8000F7E03197F1F700C0000082BB8FEC97E0ED
:100D90000197F1F700C00000AF98EFECF7E0319752
:100DA000F1F700C0000008950F931F93CF93FC014B
:100DB0008081882359F08F01C0E00E94B606CF5F82
:100DC000F801EC0FF11D80818111F7CFCF911F91B8
:100DD0000F910895813041F028F0823041F0833046
:100DE00049F00AC0962F08C090E4960F05C090E124
:100DF000960F02C090E5960F892F80680E948906A1
:100E00000895CF93DF93EA010E94EA06CE010E9483
:100E1000D406DF91CF910895CF93DF93CDB7DEB79E
:100E200060970FB6F894DEBF0FBECDBF4AE050E02A
:100E3000BE016F5F7F4F0E94690ACE0101960E943A
:100E4000D40660960FB6F894DEBF0FBECDBFDF911B
:100E5000CF91089581E00E94890608950E94E801DB
:100E600062E070E086E390E00E945200892B11F06E
:100E70000E94090663E070E086E390E00E94520061
:100E8000892B11F00E94B2010E94A8000E94A401C7
:100E9000019711F4AA9AE4CFAA98E2CFCF92DF92F9
:100EA000EF92FF921F93CF93DF93CDB7DEB760979A
:100EB0000FB6F894DEBF0FBECDBF6C0180E1E1EA52
:100EC000F0E0DE01119601900D928A95E1F7CE01D6
:100ED00001967C0110E0F701619171917F01C601DB
:100EE0000E94590A892B29F01F5F1830A1F780E072
:100EF00001C0812F60960FB6F894DEBF0FBECDBF44
:100F0000DF91CF911F91FF90EF90DF90CF900895E8
:100F1000DC018C91882351F0681729F090E00DC016
:100F200026130BC001C090E031E0390FA30FB11DB3
:100F3000FA019A012D5F3F4F08C09F5FFD01E90F45
:100F4000F11D20812111ECCFF1CF8D918193E2171A
:100F5000F307D9F7FA0113820895CF93DF9300D0F6
:100F60001F92CDB7DEB719821A8281E08B83CE0142
:100F700001960E940C090F900F900F90DF91CF9176
:100F80000895CF93DF9300D000D0CDB7DEB7FC013A
:100F900019821A821B821C828681982F9295907FDB
:100FA00087818F70892B8A838381982F9295907F78
:100FB00084818F70892B8B838081982F9295907F6D
:100FC00081818F70892B8C8344E050E0BE016F5F7C
:100FD0007F4F88E60E944C090F900F900F900F9062
:100FE000DF91CF910895EF92FF920F931F93CF93CC
:100FF000DF93CDB7DEB72A970FB6F894DEBF0FBEEA
:10100000CDBF8C01CE0101967C0185E0F7011192E4
:101010008A95E9F783E08983AE014A5F5F4F60E21A
:10102000C8010E948807CE0106960E944E078F7065
:101030008A83F8018081982F9295907F81818F70AB
:10104000892B8B838381982F9295907F84818F70D9
:10105000892B8C838085982F9295907F81858F70C6
:10106000892B8D8345E050E0B70188E60E944C094A
:101070002A960FB6F894DEBF0FBECDBFDF91CF9199
:101080001F910F91FF90EF900895CF92DF92EF9212
:10109000FF920F931F93CF93DF93CDB7DEB768977F
:1010A0000FB6F894DEBF0FBECDBF7C016B01198275
:1010B00080E1E1EAF0E0DE01199601900D928A9557
:1010C000E1F707E010E09E012E5F3F4F41E050E066
:1010D000BE016F5F7F4F88E60E949A09811172C03E
:1010E0009E81292F22952F70205DD7012C939F7010
:1010F000905D11969C9311973EE212963C93129745
:101100009F81292F22952F70205D13962C93139782
:101110009F70905D14969C93149715963C93159729
:1011200092E316969C93169790E317969C931797C5
:101130009885292F22952F70205D18962C9318974B
:101140009F70905D19969C93199790E21A969C93C4
:101150001A97ED81EF70F0E0EE0FFF1FEC0FFD1F0F
:101160000184F285E02D90811B969C931B979181C1
:101170001C969C931C9792811D969C931D971E967E
:101180001C929C81292F22952F70205DF6012083CF
:101190009F70905D91833AE332839B81292F229542
:1011A0002F70205D23839F70905D948335839A8197
:1011B000292F22952F702770205D26839F70905DC8
:1011C0009783108668960FB6F894DEBF0FBECDBF2A
:1011D000DF91CF911F910F91FF90EF90DF90CF9013
:1011E0000895BC9ABD9ABE98BF9A84E58DB90895BA
:1011F0008FB9779BFECF8FB1089506B607FEFDCF5E
:1012000021B1287F30E090E02817390719F081B12B
:10121000887F089580E008951F93CF93DF93EC01BA
:1012200084B38C7F84BB85B3836085BB988199230D
:1012300041F080E011E0110F110F8F5F8917D8F393
:1012400001C011E0298130E040E050E060E072E14F
:101250008AE790E00E94370ACA01B901605171091A
:1012600081099109212F30E0220F331F032E000C3A
:10127000440B550B0E94370A20B981B18C7F9881AD
:10128000892B81B98A81880F82B986B7846086BF2D
:10129000DF91CF911F910895DF92EF92FF920F930C
:1012A0001F93CF93DF93C82F7B018A0184EA86BF07
:1012B00088E00E94FD08882321F084E986BFDFEFE3
:1012C00030C0CC0FC3B984E886BF88E10E94FD0816
:1012D000D82F811104C00115110529F420C084E91B
:1012E00086BFDFEF1EC080E090E0C0E00F2EF4E884
:1012F000DF2EF02DF701E80FF91F808183B9D6BEEC
:1013000088E20E94FD08882321F084E986BFDFEF90
:1013100008C0CF5F8C2F90E08017910758F384E9C5
:1013200086BF8D2FDF91CF911F910F91FF90EF908E
:10133000DF9008959F92AF92BF92CF92DF92EF928B
:10134000FF920F931F93CF93DF93982E7B01EA01B7
:10135000690184EA86BF88E00E94FD08882321F0A5
:1013600084E986BF8FEF77C0892D880F83B984E821
:1013700086BF88E10E94FD08811103C0209729F4EF
:1013800020C084E986BF8FEF66C080E090E0B12C7A
:101390000F2EF4E8AF2EF02DF701E80FF91F808132
:1013A00083B9A6BE88E20E94FD08882321F084E963
:1013B00086BF8FEF50C0B3948B2D90E08C179D07A4
:1013C00058F384EA86BF80E10E94FD08882321F05B
:1013D00084E986BF8FEF3FC0892D880F816083B974
:1013E00084E886BF80E40E94FD08811107C078016F
:1013F00081E0E81AF10831F4E70118C084E986BFFA
:101400008FEF29C0C0E0D0E010E004ECCC0DDD1D72
:1014100006BF80E50E94FD08811116C083B1888354
:101420001F5FC12FD0E0CE15DF0580F384E886BFB3
:1014300088E50E94FD0881110BC093B1CC0DDD1D24
:10144000988394E996BF07C084E986BF8FEF03C0F5
:1014500084E986BF8FEFDF91CF911F910F91FF90AD
:10146000EF90DF90CF90BF90AF909F900895A1E252
:101470001A2EAA1BBB1BFD010DC0AA1FBB1FEE1F0E
:10148000FF1FA217B307E407F50720F0A21BB30B59
:10149000E40BF50B661F771F881F991F1A9469F7D5
:1014A00060957095809590959B01AC01BD01CF0131
:1014B0000895FB01DC018D91019080190110D9F391
:1014C000990B0895FB01DC0101900D920020E1F7DA
:1014D00008954532510520F4423010F00C94740AFE
:1014E000FB011082CB010895BB274A3031F49923C8
:1014F00022F4BDE2909581959F4F0C94800ABB2702
:10150000FB015527AA27880F991FAA1FA41710F0BF
:10151000A41B83955051B9F7A05DAA3308F0A95DCB
:10152000A193009779F7B111B1931192CB010C946B
:10153000B20CAEE0B0E0EFE9FAE00C946A0D0D8970
:101540001E8986E08C831A8309838FEF9FE79E8331
:101550008D83AE01475E5F4F6F89788DCE01019616
:101560000E94BB0AEF81F885E00FF11F10822E96D2
:10157000E4E00C94860DABE0B0E0E1ECFAE00C9412
:101580005C0D6C017B018A01FC011782168283814C
:1015900081FFCCC1CE0101963C01F6019381F70198
:1015A00093FD859193FF81917F01882309F4BAC14E
:1015B000853239F493FD859193FF81917F018532C6
:1015C00029F4B60190E00E94C20CE7CF912C212CA7
:1015D000312CFFE1F315D8F08B3279F038F48032FA
:1015E00079F08332A1F4232D20611DC08D3261F08A
:1015F000803369F4232D216016C0832D8260382E3C
:10160000E32DE4603E2E2AC0F32DF8601DC037FCA8
:101610002DC020ED280F2A3040F08E32B9F436FC70
:1016200081C1232D2064322E19C036FE06C08AE007
:10163000989E200D1124922E11C0EAE02E9E200DBE
:101640001124222EF32DF0623F2E08C08C3621F497
:10165000832D8068382E02C0883641F4F70193FD4F
:10166000859193FF81917F018111B3CF982F9F7D49
:101670009554933028F40C5F1F4F9FE399830DC05E
:10168000833631F0833771F0833509F059C021C0BA
:10169000F801808189830E5F1F4F88248394912CE9
:1016A000530113C02801F2E04F0E511CF801A08035
:1016B000B18036FE03C0692D70E002C06FEF7FEF8E
:1016C000C5010E94A70C4C018201F32DFF773F2E2C
:1016D00016C0280122E0420E511CF801A080B18002
:1016E00036FE03C0692D70E002C06FEF7FEFC501C9
:1016F0000E949C0C4C01F32DF0683F2E820133FCBC
:101700001BC0822D90E088169906B0F4B60180E2E5
:1017100090E00E94C20C2A94F4CFF50137FC859129
:1017200037FE81915F01B60190E00E94C20C21104A
:101730002A9421E0821A91088114910471F7E8C07B
:10174000843611F0893641F5F80137FE07C0608113
:101750007181828193810C5F1F4F08C0608171810C
:10176000072E000C880B990B0E5F1F4FF32DFF7691
:101770003F2E97FF09C090958095709561957F4F9A
:101780008F4F9F4FF0683F2E2AE030E0A3010E9468
:10179000FE0C882E861845C0853731F4232D2F7E08
:1017A000B22E2AE030E025C0932D997FB92E8F36D6
:1017B000C1F018F4883579F0B5C0803719F0883752
:1017C00021F0B0C0E92FE061BE2EB4FE0DC0FB2DAC
:1017D000F460BF2E09C034FE0AC0292F2660B22E45
:1017E00006C028E030E005C020E130E002C020E182
:1017F00032E0F801B7FE07C0608171818281938178
:101800000C5F1F4F06C06081718180E090E00E5F29
:101810001F4FA3010E94FE0C882E8618FB2DFF7718
:101820003F2E36FE0DC0232D2E7FA22E891458F494
:1018300034FE0BC032FC09C0832D8E7EA82E05C05D
:10184000B82CA32C03C0B82C01C0B92CA4FE0FC027
:10185000FE01E80DF11D8081803321F49A2D997EDF
:10186000A92E09C0A2FE06C0B394B39404C08A2D69
:10187000867809F0B394A3FC11C0A0FE06C0B21490
:1018800088F4280C922C9B180EC0B21460F4B60198
:1018900080E290E00E94C20CB394F7CFB21418F427
:1018A0002B1802C0982C212CA4FE10C0B60180E396
:1018B00090E00E94C20CA2FE17C0A1FC03C088E702
:1018C00090E002C088E590E0B6010CC08A2D8678D1
:1018D00059F0A1FE02C08BE201C080E2A7FC8DE2BC
:1018E000B60190E00E94C20C891438F4B60180E37E
:1018F00090E00E94C20C9A94F7CF8A94F301E80D0D
:10190000F11D8081B60190E00E94C20C8110F5CFDC
:10191000222009F442CEB60180E290E00E94C20C7F
:101920002A94F6CFF6018681978102C08FEF9FEF50
:101930002B96E2E10C94780DFC010590615070400B
:101940000110D8F7809590958E0F9F1F0895FC0188
:101950006150704001900110D8F7809590958E0FDE
:101960009F1F0895DC01FC01672F71917723E1F738
:10197000329704C07C916D9370836291AE17BF075C
:10198000C8F308950F931F93CF93DF93FB01238137
:1019900021FD03C08FEF9FEF2CC022FF16C04681B0
:1019A0005781248135814217530744F4A081B181C6
:1019B0009D012F5F3F4F318320838C932681378198
:1019C0002F5F3F4F3783268314C08B01EC01FB014F
:1019D0000084F185E02D0995892BE1F6D801169652
:1019E0008D919C911797019617969C938E931697BD
:1019F000CE01DF91CF911F910F910895FA01AA278F
:101A0000283051F1203181F1E8946F936E7F6E5F41
:101A10007F4F8F4F9F4FAF4FB1E03ED0B4E03CD0EF
:101A2000670F781F891F9A1FA11D680F791F8A1FD2
:101A3000911DA11D6A0F711D811D911DA11D20D039
:101A400009F468943F912AE0269F11243019305DF3
:101A50003193DEF6CF010895462F4770405D4193E4
:101A6000B3E00FD0C9F7F6CF462F4F70405D4A3331
:101A700018F0495D31FD4052419302D0A9F7EACFF9
:101A8000B4E0A6959795879577956795BA95C9F728
:101A900000976105710508959B01AC010A2E06941B
:101AA0005795479537952795BA95C9F7620F731FD4
:101AB000841F951FA01D08952F923F924F925F9211
:101AC0006F927F928F929F92AF92BF92CF92DF924E
:101AD000EF92FF920F931F93CF93DF93CDB7DEB7B3
:101AE000CA1BDB0B0FB6F894DEBF0FBECDBF099447
:101AF0002A88398848885F846E847D848C849B849E
:101B0000AA84B984C884DF80EE80FD800C811B81AB
:101B1000AA81B981CE0FD11D0FB6F894DEBF0FBEDA
:0A1B2000CDBFED010895F894FFCF4A
:101B2A00340105020E021D02000000000000000040
:101B3A00000000000000000000000000000030303B
:101B4A003A30302073617400013401C300C700CBFE
:101B5A0000CF00D300D70019023401E501EE01F7E6
:101B6A00013401C300C700CB00CF00D300D700194E
:101B7A0002430052544320736574206661696C65A0
:101B8A00642E0053756E004D6F6E005475650057D4
:101B9A00656400546875004672690044696769742F
:101BAA00616C20436C6F636B004F7074696F6E7366
:101BBA0000686F7572006D696E7574650073656390
:101BCA006F6E64006D6F6E7468007965617200777C
:101BDA0065656B5F64617900616C61726D5F6461F8
:101BEA0079002564002A2A20202020202020202075
:101BFA0020202020002020202A2A202020202020E7
:101C0A0020202020002020202020202A2A202020D6
:101C1A0020202020002020202020202A2A2A2A20B2
:101C2A0020202020002020202020202020202020CA
:101C3A002A2A2A20002020202020202A2A2A20207E
:101C4A0020202020005E5E2020202020202020202E
:101C5A0020202020002020205E5E2020202020201E
:101C6A0020202020002020202020205E5E2020200E
:101C7A0020202020002020202020205E5E5E5E2082
:101C8A00202020200020202020202020202020206A
:101C9A005E5E5E20002020202020205E5E5E2020E6
:101CAA0020202020005365742054696D6500536517
:101CBA007420446174650053657420416C61726DCF
:101CCA00003E003C0030333A30373A303000303191
:101CDA002E30362E32303735205361740030303A88
:081CEA0030302073617400002A
:00000001FF
